:020000040800F2
:1000000000280020CD0F00085D0F0008630F0008D6
:10001000690F00086F0F0008750F0008000000004E
:100020000000000000000000000000007B0F00083E
:10003000870F000800000000930F00089F0F0008C2
:1000400015100008151000081510000815100008FC
:1000500015100008151000081510000815100008EC
:1000600015100008151000081510000815100008DC
:1000700015100008151000081510000815100008CC
:1000800015100008151000081510000815100008BC
:1000900015100008151000081510000815100008AC
:1000A000151000081510000815100008151000089C
:1000B000AD0F000815100008000000001510000822
:1000C00015100008000000000000000015100008D6
:1000D00000000000151000081510000800000000C6
:1000E0001510000815100008151000080000000089
:1000F0000000000000000000000000000000000000
:0C01000000000000000000005FF808F1A3
:10010C0010B5054C237833B9044B13B10448AFF345
:10011C0000800123237010BD24000020000000008B
:10012C004026000808B5034B1BB103490348AFF345
:10013C00008008BD000000002800002040260008B8
:10014C0080B582B000AF78607B68092B00F28081AB
:10015C0001A252F823F000BF8D010008D501000860
:10016C001D02000865020008AD020008F502000837
:10017C003D03000885030008CD03000815040008A2
:10018C0000220121C64801F02BFA00220221C448AA
:10019C0001F026FA00220421C14801F021FA0022C4
:1001AC000821BF4801F01CFA00221021BC4801F0C4
:1001BC0017FA00222021BA4801F012FA012240213C
:1001CC00B74801F00DFA67E101220121B44801F0B2
:1001DC0007FA00220221B24801F002FA002204219F
:1001EC00AF4801F0FDF901220821AD4801F0F8F902
:1001FC0001221021AA4801F0F3F901222021A8487C
:10020C0001F0EEF901224021A54801F0E9F943E1A2
:10021C0000220121A24801F0E3F900220221A048AA
:10022C0001F0DEF9012204219D4801F0D9F90022E8
:10023C0008219B4801F0D4F900221021984801F0C4
:10024C00CFF901222021964801F0CAF90022402161
:10025C00934801F0C5F91FE100220121904801F0FB
:10026C00BFF9002202218E4801F0BAF900220421C4
:10027C008B4801F0B5F900220821894801F0B0F94A
:10028C0001221021864801F0ABF90122202184487B
:10029C0001F0A6F900224021814801F0A1F9FBE010
:1002AC00012201217E4801F09BF9002202217C48A9
:1002BC0001F096F900220421794801F091F901220C
:1002CC000821774801F08CF901221021744801F0C3
:1002DC0087F900222021724801F082F90022402186
:1002EC006F4801F07DF9D7E0002201216C4801F044
:1002FC0077F9012202216A4801F072F900220421E7
:10030C00674801F06DF900220821654801F068F991
:10031C0001221021624801F063F90022202160487B
:10032C0001F05EF9002240215D4801F059F9B3E07B
:10033C00002201215A4801F053F9012202215848A8
:10034C0001F04EF900220421554801F049F9002230
:10035C000821534801F044F900221021504801F0C3
:10036C003FF9002220214E4801F03AF900224021A9
:10037C004B4801F035F98FE000220121484801F08B
:10038C002FF900220221464801F02AF9002204210B
:10039C00434801F025F901220821414801F020F9D8
:1003AC00012210213E4801F01BF9012220213C487A
:1003BC0001F016F901224021394801F011F96BE0E6
:1003CC0000220121364801F00BF9002202213448A9
:1003DC0001F006F900220421314801F001F9002254
:1003EC0008212F4801F0FCF8002210212C4801F0C4
:1003FC00F7F8002220212A4801F0F2F800224021CF
:10040C00274801F0EDF847E000220121244801F0D3
:10041C00E7F800220221224801F0E2F80022042130
:10042C001F4801F0DDF8002208211D4801F0D8F822
:10043C00012210211A4801F0D3F80022202118487B
:10044C0001F0CEF800224021154801F0C9F823E054
:10045C0001220121124801F0C3F8012202211048A7
:10046C0001F0BEF8012204210D4801F0B9F8012277
:10047C0008210B4801F0B4F801221021084801F0C2
:10048C00AFF801222021064801F0AAF801224021F0
:10049C00034801F0A5F800BF00BF0837BD4680BD7A
:1004AC00000C014080B582B000AF0346FB71FB79B4
:1004BC0003F00103DBB21A464FF48071264801F0B9
:1004CC008FF8FB7903F00203DBB21A464FF400718C
:1004DC00214801F085F8FB7903F00403DBB21A46DE
:1004EC004FF480611C4801F07BF8FB7903F00803A2
:1004FC00DBB21A464FF40061174801F071F8FB7932
:10050C0003F01003DBB21A464FF48051124801F08D
:10051C0067F8FB7903F02003DBB21A464FF4005165
:10052C000D4801F05DF8FB7903F04003DBB21A468D
:10053C004FF48041084801F053F8FB7923F07F0316
:10054C00DBB21A464FF40041034801F049F800BFF2
:10055C000837BD4680BD00BF000C014080B588B097
:10056C0000AF00F053FD0023FB610023BB610F23A0
:10057C007B6108233B613223FB600023BB600023BB
:10058C007B6000F071F800F0F7F800F0A9F8324841
:10059C0001F090FC192000F01BFC0A2000F02CFC50
:1005AC003969786900F03EF92C4B1B68012B35D169
:1005BC00BB69032B21DDFB680133FB60FB683B2B24
:1005CC0004DD0023FB603B6901333B613B693B2B42
:1005DC0004DD00233B617B6901337B617B69172B55
:1005EC0001DD00237B613969786900F01BF910216A
:1005FC001B4801F00DF80023BB61BB690133BB61E3
:10060C00FB695A1CFA61184600F054F9FB69032B7C
:10061C0001DD0023FB61192000F0DAFB114B1B6894
:10062C00012BC1D17B68072B03DD00F095FB002368
:10063C007B607B6801337B60BB685A1CBA601846D0
:10064C0000F0C4F9BB68072B01DD0023BB600A2056
:10065C0000F0D2FBA8E700BF5800002044000020A7
:10066C00000801405400002080B590B000AF07F1A5
:10067C00180328220021184601F0D4FF3B1D00224C
:10068C001A605A609A60DA601A610223BB61012316
:10069C00BB621023FB6200237B6307F1180318462F
:1006AC0000F0D0FF0346002B01D000F08BFB0F2392
:1006BC007B600023BB600023FB6000233B610023B5
:1006CC007B613B1D0021184601F03CFA0346002BD0
:1006DC0001D000F077FB00BF4037BD4680BD000065
:1006EC0080B586B000AF07F1080300221A605A608B
:1006FC009A60DA603B4600221A605A601D4B4FF03C
:10070C0080421A601B4B41F63F725A60194B002213
:10071C009A60184B0922DA60164B00221A61154BAD
:10072C0000229A61134801F075FB0346002B01D09F
:10073C0000F048FB4FF48053BB6007F108031946E7
:10074C000C4801F00BFD0346002B01D000F03AFBE6
:10075C0000233B6000237B603B461946054801F0B3
:10076C00D3FE0346002B01D000F02CFB00BF183742
:10077C00BD4680BD5800002080B586B000AF07F1A3
:10078C00080300221A605A609A60DA60224B9B6957
:10079C00214A43F0040393611F4B9B6903F004034C
:1007AC007B607B681C4B9B691B4A43F0080393617D
:1007BC00194B9B6903F008033B603B6800224FF622
:1007CC00FC71164800F00CFF00224FF67F711448A4
:1007DC0000F006FF4FF6FC73BB600123FB600023A7
:1007EC003B6102237B6107F1080319460B4800F0BB
:1007FC007DFD4FF67F73BB600123FB6000233B61E3
:10080C0002237B6107F108031946054800F06EFDD1
:10081C0000BF1837BD4680BD0010024000080140E3
:10082C00000C014080B483B000AF786039607B6805
:10083C00172B36DC7B68002B33DB3B683B2B30DC27
:10084C003B68002B2DDB7B68184A82FB031292104D
:10085C00DB17D31A164A13607968144B83FB0123F8
:10086C009A10CB17D21A13469B0013445B00CA1A7A
:10087C000F4B5A603B680D4A82FB03129210DB1738
:10088C00D31A0B4A93603968084B83FB01239A10E7
:10089C00CB17D21A13469B0013445B00CA1A044BA5
:1008AC00DA6000BF0C37BD4680BC70476766666671
:1008BC000000002080B582B000AF78607B68032B0D
:1008CC007AD801A252F823F0E50800081D090008A7
:1008DC00550900088D09000800224021394800F014
:1008EC007FFE01228021374800F07AFE01224FF46E
:1008FC008071344800F074FE01224FF400713148CD
:10090C0000F06EFE304B1B681846FFF719FC54E0E4
:10091C00012240212B4800F063FE0022802129484F
:10092C0000F05EFE01224FF48071264800F058FE64
:10093C0001224FF40071234800F052FE224B5B68F9
:10094C001846FFF7FDFB38E0012240211D4800F05E
:10095C0047FE012280211B4800F042FE00224FF48A
:10096C008071184800F03CFE01224FF400711548CC
:10097C0000F036FE144B9B681846FFF7E1FB1CE0B9
:10098C00012240210F4800F02BFE012280210D484E
:10099C0000F026FE01224FF480710A4800F020FE80
:1009AC0000224FF40071074800F01AFE064BDB687A
:1009BC001846FFF7C5FB00E000BF00BF0837BD4677
:1009CC0080BD00BF000801400000002080B582B04F
:1009DC0000AF78607B68072B00F2B48101A252F85B
:1009EC0023F000BF110A0008790A0008E10A000888
:1009FC00490B0008B10B0008190C0008810C000809
:100A0C00E90C000800220421D14800F0E9FD012284
:100A1C000821CF4800F0E4FD01224FF48061CC485E
:100A2C0000F0DEFD01224FF40061C94800F0D8FD52
:100A3C0001224FF48051C64800F0D2FD01224FF440
:100A4C000051C34800F0CCFD01224FF48041C04856
:100A5C0000F0C6FD01224FF40041BD4800F0C0FD7E
:100A6C00BC4B1B781846FFF71DFD6CE101220421DD
:100A7C00B74800F0B5FD00220821B54800F0B0FDE4
:100A8C0001224FF48061B24800F0AAFD01224FF41C
:100A9C000061AF4800F0A4FD01224FF48051AC4836
:100AAC0000F09EFD01224FF40051A94800F098FD82
:100ABC0001224FF48041A64800F092FD01224FF430
:100ACC000041A34800F08CFDA24B5B781846FFF761
:100ADC00E9FC38E1012204219D4800F081FD01224E
:100AEC0008219B4800F07CFD00224FF4806198485F
:100AFC0000F076FD01224FF40061954800F070FD86
:100B0C0001224FF48051924800F06AFD01224FF40B
:100B1C0000518F4800F064FD01224FF480418C4855
:100B2C0000F05EFD01224FF40041894800F058FDB1
:100B3C00884B9B781846FFF7B5FC04E10122042191
:100B4C00834800F04DFD01220821814800F048FD4A
:100B5C0001224FF480617E4800F042FD00224FF4E8
:100B6C0000617B4800F03CFD01224FF48051784835
:100B7C0000F036FD01224FF40051754800F030FDB5
:100B8C0001224FF48041724800F02AFD01224FF4FB
:100B9C0000416F4800F024FD6E4BDB781846FFF7E0
:100BAC0081FCD0E001220421694800F019FD0122EA
:100BBC000821674800F014FD01224FF4806164485D
:100BCC0000F00EFD01224FF40061614800F008FDB9
:100BDC0000224FF480515E4800F002FD01224FF4D8
:100BEC0000515B4800F0FCFC01224FF48041584856
:100BFC0000F0F6FC01224FF40041554800F0F0FCE7
:100C0C00544B1B791846FFF74DFC9CE00122042144
:100C1C004F4800F0E5FC012208214D4800F0E0FCB3
:100C2C0001224FF480614A4800F0DAFC01224FF4B3
:100C3C000061474800F0D4FC01224FF48051444835
:100C4C0000F0CEFC00224FF40051414800F0C8FCEB
:100C5C0001224FF480413E4800F0C2FC01224FF4C7
:100C6C0000413B4800F0BCFC3A4B5B791846FFF75F
:100C7C0019FC68E001220421354800F0B1FC012286
:100C8C000821334800F0ACFC01224FF4806130485D
:100C9C0000F0A6FC01224FF400612D4800F0A0FCEE
:100CAC0001224FF480512A4800F09AFC01224FF4A3
:100CBC000051274800F094FC00224FF48041244856
:100CCC0000F08EFC01224FF40041214800F088FC1A
:100CDC00204B9B791846FFF7E5FB34E001220421F9
:100CEC001B4800F07DFC01220821194800F078FC1B
:100CFC0001224FF48061164800F072FC01224FF47F
:100D0C000061134800F06CFC01224FF48051104834
:100D1C0000F066FC01224FF400510D4800F060FC1D
:100D2C0001224FF480410A4800F05AFC00224FF493
:100D3C000041074800F054FC064BDB791846FFF7DE
:100D4C00B1FB00E000BF00BF0837BD4680BD00BF4F
:100D5C00000801401000002080B483B000AF134B9A
:100D6C001B78FB71114B5A78104B1A700F4B9A78F9
:100D7C000E4B5A700D4BDA780C4B9A700B4B1A7950
:100D8C000A4BDA70094B5A79084B1A71074B9A794E
:100D9C00064B5A71054BDA79044B9A71034AFB796D
:100DAC00D37100BF0C37BD4680BC704710000020CB
:100DBC0080B582B000AF786000F032F800BF083721
:100DCC00BD4680BD80B400AF72B600BFFEE7000028
:100DDC0080B483B000AF7860054A7B681360054B24
:100DEC0000221A6000BF0C37BD4680BC704700BFA4
:100DFC00400000204400002080B483B000AF786035
:100E0C00054A7B681360054B00221A6000BF0C3743
:100E1C00BD4680BC704700BF50000020540000202D
:100E2C0080B400AF194B1B68002B0BDD174B1B68F4
:100E3C00013B164A1360154B1B68002B02DC144B4C
:100E4C0001221A60134B1B68002B0BDD114B1B6826
:100E5C00013B104A13600F4B1B68002B02DC0E4B3E
:100E6C0001221A600D4B1B68002B0BDD0B4B1B6812
:100E7C00013B0A4A1360094B1B68002B02DC084B30
:100E8C0001221A6000BFBD4680BC704740000020A4
:100E9C0044000020480000204C000020500000209E
:100EAC005400002080B485B000AF154B9B69144AE8
:100EBC0043F001039361124B9B6903F00103BB6088
:100ECC00BB680F4BDB690E4A43F08053D3610C4B6C
:100EDC00DB6903F080537B607B680A4B5B68FB60CB
:100EEC00FB6823F0E063FB60FB6843F08063FB600E
:100EFC00044AFB68536000BF1437BD4680BC704782
:100F0C00001002400000014080B584B000AF786052
:100F1C007B681B68B3F1804F13D10C4BDB690B4A18
:100F2C0043F00103D361094BDB6903F00103FB6060
:100F3C00FB68002200211C2000F0A1F91C2000F00D
:100F4C00BAF900BF1037BD4680BD00BF001002408B
:100F5C0080B400AFFEE780B400AFFEE780B400AF12
:100F6C00FEE780B400AFFEE780B400AFFEE780B4CC
:100F7C0000AF00BFBD4680BC704780B400AF00BF5F
:100F8C00BD4680BC704780B400AF00BFBD4680BC7E
:100F9C00704780B500AF00F07FF800BF80BD000047
:100FAC0080B500AF024800F0D1FF00BF80BD00BF8C
:100FBC005800002080B400AF00BFBD4680BC704715
:100FCC00FFF7F8FF0B480C490C4A002302E0D458F9
:100FDC00C4500433C4188C42F9D3094A094C002379
:100FEC0001E013600432A242FBD301F0F7FAFFF7E1
:100FFC00B5FA70470000002024000020802600086D
:10100C0024000020A4000020FEE7000080B500AF03
:10101C00084B1B68074A43F010031360032000F0D1
:10102C0023F90F2000F008F8FFF73CFF00231846C7
:10103C0080BD00BF0020024080B582B000AF786058
:10104C00124B1A68124B1B7819464FF47A73B3FB88
:10105C00F1F3B2FBF3F3184600F03BF90346002B17
:10106C0001D001230EE07B680F2B0AD8002279688F
:10107C004FF0FF3000F003F9064A7B681360002341
:10108C0000E0012318460837BD4680BD180000203B
:10109C00200000201C00002080B400AF054B1B7802
:1010AC001A46054B1B681344034A136000BFBD4628
:1010BC0080BC704720000020A000002080B400AF4E
:1010CC00024B1B681846BD4680BC7047A000002030
:1010DC0080B485B000AF78607B6803F00703FB60D9
:1010EC000C4BDB68BB60BA684FF6FF031340BB6068
:1010FC00FB681A02BB68134343F0BF6343F400332D
:10110C00BB60044ABB68D36000BF1437BD4680BCCB
:10111C00704700BF00ED00E080B400AF044BDB680B
:10112C001B0A03F007031846BD4680BC704700BF7E
:10113C0000ED00E080B483B000AF0346FB7197F97B
:10114C000730002B0BDBFB7903F01F02064997F9E4
:10115C0007305B09012000FA02F241F8232000BF9E
:10116C000C37BD4680BC704700E100E080B483B012
:10117C0000AF03463960FB7197F90730002B0ADB8F
:10118C003B68DAB20C4997F907301201D2B20B4422
:10119C0083F800230AE03B68DAB20849FB7903F0D4
:1011AC000F03043B1201D2B20B441A7600BF0C376A
:1011BC00BD4680BC704700BF00E100E000ED00E0E0
:1011CC0080B489B000AFF860B9607A60FB6803F056
:1011DC000703FB61FB69C3F10703042B28BF04233E
:1011EC00BB61FB690433062B02D9FB69033B00E0AE
:1011FC0000237B614FF0FF32BB6902FA03F3DA4341
:10120C00BB681A407B699A404FF0FF317B6901FA49
:10121C0003F3D9437B680B40134318462437BD4670
:10122C0080BC704780B582B000AF78607B68013BB2
:10123C00B3F1807F01D301230FE00A4A7B68013BA5
:10124C0053600F214FF0FF30FFF790FF054B00224A
:10125C009A60044B07221A60002318460837BD46D3
:10126C0080BD00BF10E000E080B582B000AF7860B8
:10127C007868FFF72DFF00BF0837BD4680BD80B5ED
:10128C0086B000AF0346B9607A60FB7300237B61C4
:10129C00FFF742FF78617A68B9687869FFF790FFC9
:1012AC00024697F90F3011461846FFF75FFF00BF53
:1012BC001837BD4680BD80B582B000AF0346FB71C8
:1012CC0097F907301846FFF735FF00BF0837BD46C2
:1012DC0080BD80B582B000AF78607868FFF7A2FF60
:1012EC00034618460837BD4680BD000080B48BB05D
:1012FC0000AF7860396000237B6200233B6248E1D9
:10130C0001227B6A02FA03F3FB613B681B68FA69F2
:10131C001340BB61BA69FB699A4240F037813B6864
:10132C005B68A34A93425ED0A14A934275D8A14A06
:10133C00934258D09F4A93426FD89F4A934252D0BF
:10134C009D4A934269D89D4A93424CD09B4A934202
:10135C0063D89B4A934246D0994A93425DD8122B4C
:10136C002AD8122B59D801A252F823F0F3130008F3
:10137C00CD130008DF1300082114000827140008FF
:10138C002714000827140008271400082714000845
:10139C002714000827140008271400082714000835
:1013AC002714000827140008271400082714000825
:1013BC00D5130008E9130008824A934213D02CE09D
:1013CC003B68DB683B6229E03B68DB6804333B62CB
:1013DC0024E03B68DB6808333B621FE03B68DB685A
:1013EC000C333B621AE03B689B68002B02D1042350
:1013FC003B6213E03B689B68012B05D108233B62E1
:10140C007B68FA691A6109E008233B627B68FA6918
:10141C005A6103E000233B6200E000BFBB69FF2B75
:10142C0001D87B6801E07B6804337B61BB69FF2BCF
:10143C0002D87B6A9B0002E07B6A083B9B003B6105
:10144C007B691A680F213B6901FA03F3DB431A40ED
:10145C00396A3B6901FA03F31A437B691A603B68EA
:10146C005B6803F08053002B00F09080564B9B6917
:10147C00554A43F001039361534B9B6903F00103FD
:10148C00BB60BB68514A7B6A9B08023352F823301D
:10149C00FB607B6A03F003039B000F2202FA03F349
:1014AC00DB43FA681340FB607B68494A93420DD0DA
:1014BC007B68484A934207D07B68474A934201D1E4
:1014CC00022304E0032302E0012300E000237A6AF4
:1014DC0002F0030292009340FA681343FB603B490D
:1014EC007B6A9B080233FA6841F823203B685B68EF
:1014FC0003F48033002B06D0384B1A683749BB698C
:10150C0013430B6006E0354B1A68BB69DB43334968
:10151C0013400B603B685B6803F40033002B06D070
:10152C002E4B5A682D49BB6913434B6006E02B4B7D
:10153C005A68BB69DB43294913404B603B685B68C5
:10154C0003F48013002B06D0244B9A682349BB6903
:10155C0013438B6006E0214B9A68BB69DB431F4940
:10156C0013408B603B685B6803F40013002B06D0C0
:10157C001A4BDA681949BB691343CB6006E0174B69
:10158C00DA68BB69DB4315491340CB607B6A0133D6
:10159C007B623B681A687B6A22FA03F3002B7FF4A8
:1015AC00AFAE00BF00BF2C37BD4680BC704700BF3C
:1015BC000000321000003110000022100000211039
:1015CC000000121000001110001002400000014039
:1015DC0000080140000C01400010014000040140D3
:1015EC0080B483B000AF78600B467B8013467B7071
:1015FC007B78002B03D07A887B681A6103E07B88A8
:10160C001A047B681A6100BF0C37BD4680BC70475A
:10161C0080B485B000AF78600B467B807B68DB685C
:10162C00FB607A88FB6813401A04FB68D9437B88FB
:10163C000B401A437B681A6100BF1437BD4680BC4F
:10164C007047000080B586B000AF78607B68002BD7
:10165C0001D101236CE27B681B6803F00103002BB2
:10166C0000F08780924B5B6803F00C03042B0CD0CA
:10167C008F4B5B6803F00C03082B12D18C4B5B680F
:10168C0003F48033B3F5803F0BD1894B1B6803F413
:10169C000033002B6CD07B685B68002B68D1012376
:1016AC0046E27B685B68B3F5803F06D1804B1B68D4
:1016BC007F4A43F4803313602EE07B685B68002B19
:1016CC000CD17B4B1B687A4A23F480331360784B24
:1016DC001B68774A23F4802313601DE07B685B68EA
:1016EC00B3F5A02F0CD1724B1B68714A43F48023C5
:1016FC0013606F4B1B686E4A43F4803313600BE02E
:10170C006B4B1B686A4A23F480331360684B1B686D
:10171C00674A23F4802313607B685B68002B13D02B
:10172C00FFF7CCFC386108E0FFF7C8FC02463B69C8
:10173C00D31A642B01D90323FAE15D4B1B6803F424
:10174C000033002BF0D014E0FFF7B8FC386108E050
:10175C00FFF7B4FC02463B69D31A642B01D903236F
:10176C00E6E1534B1B6803F40033002BF0D100E08F
:10177C0000BF7B681B6803F00203002B63D04C4B4B
:10178C005B6803F00C03002B0BD0494B5B6803F038
:10179C000C03082B1CD1464B5B6803F48033002BE5
:1017AC0016D1434B1B6803F00203002B05D07B685A
:1017BC001B69012B01D00123BAE13D4B1B6823F0BF
:1017CC00F8027B685B69DB00394913430B603AE034
:1017DC007B681B69002B20D0364B01221A60FFF767
:1017EC006DFC386108E0FFF769FC02463B69D31ACF
:1017FC00022B01D903239BE12D4B1B6803F0020341
:10180C00002BF0D02A4B1B6823F0F8027B685B6935
:10181C00DB00274913430B6015E0264B00221A60AE
:10182C00FFF74CFC386108E0FFF748FC02463B69C7
:10183C00D31A022B01D903237AE11D4B1B6803F049
:10184C000203002BF0D17B681B6803F00803002B0C
:10185C003AD07B689B69002B19D0174B01221A6078
:10186C00FFF72CFC386108E0FFF728FC02463B69C7
:10187C00D31A022B01D903235AE10D4B5B6A03F0F7
:10188C000203002BF0D0012000F0A6FA1CE00A4B5A
:10189C0000221A60FFF712FC38610FE0FFF70EFC14
:1018AC0002463B69D31A022B08D9032340E100BF3F
:1018BC000010024000004242800442429E4B5B6A90
:1018CC0003F00203002BE9D17B681B6803F00403CF
:1018DC00002B00F0A6800023FB75974BDB6903F00F
:1018EC008053002B0DD1944BDB69934A43F080530A
:1018FC00D361914BDB6903F08053BB60BB68012360
:10190C00FB758E4B1B6803F48073002B18D18B4B2B
:10191C001B688A4A43F480731360FFF7CFFB38616E
:10192C0008E0FFF7CBFB02463B69D31A642B01D9C5
:10193C000323FDE0814B1B6803F48073002BF0D074
:10194C007B68DB68012B06D17B4B1B6A7A4A43F020
:10195C00010313622DE07B68DB68002B0CD1764B06
:10196C001B6A754A23F001031362734B1B6A724A9C
:10197C0023F0040313621CE07B68DB68052B0CD19D
:10198C006D4B1B6A6C4A43F0040313626A4B1B6A6F
:10199C00694A43F0010313620BE0674B1B6A664A0A
:1019AC0023F001031362644B1B6A634A23F00403A4
:1019BC0013627B68DB68002B15D0FFF77FFB386167
:1019CC000AE0FFF77BFB02463B69D31A41F28832EF
:1019DC00934201D90323ABE0574B1B6A03F002037C
:1019EC00002BEED014E0FFF769FB38610AE0FFF73B
:1019FC0065FB02463B69D31A41F28832934201D906
:101A0C00032395E04C4B1B6A03F00203002BEED131
:101A1C00FB7D012B05D1484BDB69474A23F08053F2
:101A2C00D3617B68DB69002B00F08180424B5B68E3
:101A3C0003F00C03082B61D07B68DB69022B46D1C9
:101A4C003F4B00221A60FFF739FB386108E0FFF7C3
:101A5C0035FB02463B69D31A022B01D9032367E0FD
:101A6C00354B1B6803F00073002BF0D17B681B6AAD
:101A7C00B3F5803F08D1304B5B6823F400327B68B0
:101A8C009B682D4913434B602B4B5B6823F47412FA
:101A9C007B68196A7B685B6A0B43274913434B606D
:101AAC00274B01221A60FFF709FB386108E0FFF7AA
:101ABC0005FB02463B69D31A022B01D9032337E0FD
:101ACC001D4B1B6803F00073002BF0D02FE01C4B58
:101ADC0000221A60FFF7F2FA386108E0FFF7EEFA1D
:101AEC0002463B69D31A022B01D9032320E0124B87
:101AFC001B6803F00073002BF0D118E07B68DB69E6
:101B0C00012B01D1012313E00B4B5B68FB60FB68DD
:101B1C0003F480327B681B6A9A4206D1FB6803F49B
:101B2C0070127B685B6A9A4201D0012300E00023AB
:101B3C0018461837BD4680BD0010024000700040AA
:101B4C006000424280B584B000AF786039607B6839
:101B5C00002B01D10123D0E06A4B1B6803F0070373
:101B6C003A689A4210D9674B1B6823F00702654903
:101B7C003B6813430B60634B1B6803F007033A6825
:101B8C009A4201D00123B8E07B681B6803F0020382
:101B9C00002B20D07B681B6803F00403002B05D0BE
:101BAC00594B5B68584A43F4E06353607B681B688D
:101BBC0003F00803002B05D0534B5B68524A43F4E7
:101BCC0060535360504B5B6823F0F0027B689B685A
:101BDC004D4913434B607B681B6803F00103002BDA
:101BEC0040D07B685B68012B07D1474B1B6803F423
:101BFC000033002B15D101237FE07B685B68022B3F
:101C0C0007D1414B1B6803F00073002B09D1012352
:101C1C0073E03D4B1B6803F00203002B01D1012341
:101C2C006BE0394B5B6823F003027B685B683649D9
:101C3C0013434B60FFF742FAF8600AE0FFF73EFAF5
:101C4C000246FB68D31A41F28832934201D903232E
:101C5C0053E02D4B5B6803F00C027B685B689B00C8
:101C6C009A42EBD1274B1B6803F007033A689A4260
:101C7C0010D2244B1B6823F0070222493B68134304
:101C8C000B60204B1B6803F007033A689A4201D0A3
:101C9C00012332E07B681B6803F00403002B08D09F
:101CAC00194B5B6823F4E0627B68DB6816491343CD
:101CBC004B607B681B6803F00803002B09D0124BA8
:101CCC005B6823F460527B681B69DB000E4913438D
:101CDC004B6000F021F802460B4B5B681B0903F0CC
:101CEC000F030A49CB5C22FA03F3094A1360094B30
:101CFC001B681846FFF7A0F9002318461037BD469D
:101D0C0080BD00BF00200240001002406826000881
:101D1C00180000201C00002090B48AB000AF2A4BA1
:101D2C003C1D0FCB84E80F0040F201233B800023C5
:101D3C00FB610023BB6100237B6200237B610023DA
:101D4C003B62224B5B68FB61FB6903F00C03042BC9
:101D5C0002D0082B03D02DE01D4B3B622DE0FB691C
:101D6C009B0C03F00F0307F12802134413F8243CD7
:101D7C007B61FB6903F48033002B13D0134B5B683E
:101D8C005B0C03F0010307F12802134413F8283C01
:101D9C00BB617B690E4A02FB03F2BB69B2FBF3F336
:101DAC007B6204E07B690B4A02FB03F37B627B6A78
:101DBC003B6202E0064B3B6200BF3B6A1846283789
:101DCC00BD4690BC704700BF58260008001002406A
:101DDC0000127A0000093D0080B485B000AF786035
:101DEC000A4B1B680A4AA2FB03235B0A7A6802FBB4
:101DFC0003F3FB6000BFFB685A1EFA60002BF9D19D
:101E0C0000BF00BF1437BD4680BC704718000020CF
:101E1C00D34D621080B582B000AF78607B68002B28
:101E2C0001D1012341E07B6893F83D30DBB2002BFC
:101E3C0006D17B68002283F83C207868FFF764F8B1
:101E4C007B68022283F83D207B681A687B68043328
:101E5C001946104600F06AFA7B68012283F8462086
:101E6C007B68012283F83E207B68012283F83F20A7
:101E7C007B68012283F840207B68012283F8412093
:101E8C007B68012283F842207B68012283F843207F
:101E9C007B68012283F844207B68012283F845206B
:101EAC007B68012283F83D20002318460837BD4685
:101EBC0080BD000080B485B000AF78607B6893F87B
:101ECC003D30DBB2012B01D0012335E07B680222CF
:101EDC0083F83D207B681B68DA687B681B6842F0DE
:101EEC000102DA607B681B68164A934209D07B6852
:101EFC001B68B3F1804F04D07B681B68124A934275
:101F0C0011D17B681B689B6803F00703FB60FB68BF
:101F1C00062B10D07B681B681A687B681B6842F024
:101F2C0001021A6007E07B681B681A687B681B68F3
:101F3C0042F001021A60002318461437BD4680BCDB
:101F4C00704700BF002C01400004004080B582B0F7
:101F5C0000AF78607B681B681B6903F00203022BDF
:101F6C0022D17B681B68DB6803F00203022B1BD1B8
:101F7C007B681B686FF002021A617B6801221A777A
:101F8C007B681B689B6903F00303002B03D0786804
:101F9C0000F0B1F905E0786800F0A4F9786800F079
:101FAC00B3F97B6800221A777B681B681B6903F006
:101FBC000403042B22D17B681B68DB6803F0040349
:101FCC00042B1BD17B681B686FF004021A617B68C1
:101FDC0002221A777B681B689B6903F44073002B01
:101FEC0003D0786800F087F905E0786800F07AF99A
:101FFC00786800F089F97B6800221A777B681B6887
:10200C001B6903F00803082B22D17B681B68DB6873
:10201C0003F00803082B1BD17B681B686FF00802C8
:10202C001A617B6804221A777B681B68DB6903F0F2
:10203C000303002B03D0786800F05DF905E07868A5
:10204C0000F050F9786800F05FF97B6800221A778D
:10205C007B681B681B6903F01003102B22D17B6873
:10206C001B68DB6803F01003102B1BD17B681B680B
:10207C006FF010021A617B6808221A777B681B6864
:10208C00DB6903F44073002B03D0786800F033F95C
:10209C0005E0786800F026F9786800F035F97B687F
:1020AC0000221A777B681B681B6903F00103012B64
:1020BC000ED17B681B68DB6803F00103012B07D191
:1020CC007B681B686FF001021A617868FEF770FE7E
:1020DC007B681B681B6903F08003802B0ED17B6827
:1020EC001B68DB6803F08003802B07D17B681B68BF
:1020FC006FF080021A61786800F067FA7B681B68E1
:10210C001B6903F04003402B0ED17B681B68DB6816
:10211C0003F04003402B07D17B681B686FF0400233
:10212C001A61786800F0F9F87B681B681B6903F08A
:10213C002003202B0ED17B681B68DB6803F0200387
:10214C00202B07D17B681B686FF020021A6178681E
:10215C0000F032FA00BF0837BD4680BD80B584B0B0
:10216C0000AF786039607B6893F83C30012B01D16B
:10217C000223B3E07B68012283F83C207B680222B7
:10218C0083F83D207B681B689B68FB60FB6823F031
:10219C007703FB60FB6823F47F43FB607B681B6861
:1021AC00FA689A603B681B68B3F5005F3ED0B3F5E4
:1021BC00005F00F28780B3F5805F00F08580B3F597
:1021CC00805F7FD8702B1AD0702B7BD8602B50D0AF
:1021DC00602B77D8502B3CD0502B73D8402B58D039
:1021EC00402B6FD8302B64D0302B6BD8202B60D089
:1021FC00202B67D8002B5CD0102B5AD062E07B6868
:10220C0018683B6899683B685A683B68DB6800F063
:10221C005CF97B681B689B68FB60FB6843F0770389
:10222C00FB607B681B68FA689A604EE07B681868F4
:10223C003B6899683B685A683B68DB6800F045F975
:10224C007B681B689A687B681B6842F480429A60C2
:10225C003BE07B6818683B6859683B68DB681A464A
:10226C0000F0BCF87B681B685021184600F013F98D
:10227C002BE07B6818683B6859683B68DB681A463A
:10228C0000F0DAF87B681B686021184600F003F94F
:10229C001BE07B6818683B6859683B68DB681A462A
:1022AC0000F09CF87B681B684021184600F0F3F89E
:1022BC000BE07B681A683B681B681946104600F0F7
:1022CC00EAF802E000BF00E000BF7B68012283F85F
:1022DC003D207B68002283F83C20002318461037F1
:1022EC00BD4680BD80B483B000AF786000BF0C37B2
:1022FC00BD4680BC704780B483B000AF786000BF2F
:10230C000C37BD4680BC704780B483B000AF78609A
:10231C0000BF0C37BD4680BC704780B483B000AFA3
:10232C00786000BF0C37BD4680BC704780B485B068
:10233C0000AF786039607B681B68FB607B68254A5E
:10234C00934207D07B68B3F1804F03D07B68224A5D
:10235C00934208D1FB6823F07003FB603B685B6819
:10236C00FA681343FB607B681A4A934207D07B6878
:10237C00B3F1804F03D07B68174A934208D1FB68B6
:10238C0023F44073FB603B68DB68FA681343FB6023
:10239C00FB6823F080023B685B691343FB607B683E
:1023AC00FA681A603B689A687B68DA623B681A685C
:1023BC007B689A627B68074A934203D13B681A692F
:1023CC007B681A637B6801225A6100BF1437BD46D3
:1023DC0080BC7047002C01400004004080B487B0E2
:1023EC0000AFF860B9607A60FB681B6A7B61FB68C0
:1023FC001B6A23F00102FB681A62FB689B693B6154
:10240C003B6923F0F0033B617B681B013A69134382
:10241C003B617B6923F00A037B617A69BB681343D8
:10242C007B61FB683A699A61FB687A691A6200BF42
:10243C001C37BD4680BC704780B487B000AFF860D5
:10244C00B9607A60FB681B6A23F01002FB681A62A1
:10245C00FB689B697B61FB681B6A3B617B6923F4AE
:10246C0070437B617B681B037A6913437B613B6917
:10247C0023F0A0033B61BB681B013A6913433B612A
:10248C00FB687A699A61FB683A691A6200BF1C376B
:10249C00BD4680BC704780B485B000AF78603960B1
:1024AC007B689B68FB60FB6823F07003FB603A68F9
:1024BC00FB68134343F00703FB607B68FA689A6080
:1024CC0000BF1437BD4680BC704780B487B000AFE6
:1024DC00F860B9607A603B60FB689B687B617B69E4
:1024EC0023F47F437B613B681A027B681A43BB6809
:1024FC0013437A6913437B61FB687A699A6000BF66
:10250C001C37BD4680BC704780B485B000AF786086
:10251C0039607B6893F83C30012B01D1022341E0F8
:10252C007B68012283F83C207B68022283F83D20E3
:10253C007B681B685B68FB607B681B689B68BB6087
:10254C00FB6823F07003FB603B681B68FA6813435D
:10255C00FB607B681B68FA685A607B681B68144ACE
:10256C00934209D07B681B68B3F1804F04D07B6821
:10257C001B68104A93420CD1BB6823F08003BB60EC
:10258C003B685B68BA681343BB607B681B68BA68BE
:10259C009A607B68012283F83D207B68002283F8D7
:1025AC003C20002318461437BD4680BC704700BF42
:1025BC00002C01400004004080B483B000AF786070
:1025CC0000BF0C37BD4680BC704780B483B000AFF1
:1025DC00786000BF0C37BD4680BC704770B50026D4
:1025EC000C4D0D4C641BA410A64209D100F022F82E
:1025FC0000260A4D0A4C641BA410A64205D170BDDE
:10260C0055F8043B98470136EEE755F8043B9847DC
:10261C000136F2E7782600087826000878260008AC
:10262C007C26000803460244934200D1704703F80D
:10263C00011BF9E7F8B500BFF8BC08BC9E46704713
:0C264C00F8B500BFF8BC08BC9E46704703
:1026580002030405060708090A0B0C0D0E0F1010DB
:10266800000000000000000001020304060708093A
:042678003101000824
:04267C000D01000844
:102680000100000002000000030000000400000040
:102690000703CDCCCCCD03070024F40010000000CC
:0426A0000100000035
:0400000508000FCD13
:00000001FF
